:020000040800F2
:10000000C80C00200D2B0008152B0008172B00082A
:10001000192B00081B2B00081D2B000800000000F6
:100020000000000000000000000000001F2B00087E
:10003000212B000800000000232B0008252B0008BE
:10004000272B0008272B0008272B0008272B000848
:10005000272B0008272B0008272B0008272B000838
:10006000272B0008272B0008272B0008272B000828
:10007000272B0008272B0008272B0008272B000818
:10008000272B0008FF250008272B0008272B000836
:10009000272B0008272B0008272B0008272B0008F8
:1000A000272B0008272B0008272B0008272B0008E8
:1000B000272B0008272B0008272B0008272B0008D8
:1000C000272B0008272B0008272B0008272B0008C8
:1000D000272B000879050008B12600085F260008D4
:1000E000272B0008272B0008272B000845030008B2
:1000F000272B0008272B0008272B0008272B000898
:10010000272B0008272B0008272B0008272B000887
:10011000272B0008272B0008272B0008272B000877
:10012000272B0008272B0008272B0008272B000867
:10013000272B0008272B0008272B0008DB050008C9
:10014000F1050008272B0008272B0008272B0008A3
:10015000272B0008272B0008272B0008272B000837
:10016000272B0008272B0008272B0008272B000827
:10017000272B0008272B0008272B0008272B000817
:10018000272B0008272B0008DFF80CD005F0D8FC3F
:10019000004800479D010008C80C002002E0012033
:1001A00001F0EFFBFBE7000010B504466FF0040020
:1001B00002F011FDE11704EB5171C1F3C701384A98
:1001C00011701046007800EB4001C1EBC0104FF6F3
:1001D000FF7101EAC0003349088010BD0146304A72
:1001E00012784A434FF0E0235A6100229A611A467E
:1001F000126942F001021A6100BF4FF0E02210695B
:1002000010F0010F02D010F4803FF6D04FF0E02242
:10021000126922F001024FF0E0231A6100229A6174
:10022000704701461F4A12884A434FF0E0235A6143
:1002300000229A611A46126942F001021A6100BF57
:100240004FF0E022106910F0010F02D010F4803F4F
:10025000F6D04FF0E022126922F001024FF0E023C5
:100260001A6100229A61704770B504464FF4077016
:1002700094FBF0F0C6B24FF4077094FBF0F100FB72
:10028000114085B205E04FF40770FFF7CAFF701EFA
:10029000C6B2002EF7D115B12846FFF7C2FF70BDD8
:1002A00000000020020000200EB50121042004F00F
:1002B00046F84FF0FF3001905320ADF800000020C9
:1002C000ADF80800ADF8020001212C4804F05AFAFC
:1002D00069462A4804F0EBF90121284804F070FA35
:1002E0000EBD1FB50121402004F029F863200290C3
:1002F00040F24730ADF804000020ADF80600ADF83C
:100300000C0001A91E4804F0D2F9012211461C4834
:1003100004F06EFE01211A4804F052FA4FF4E06036
:1003200002F006FC2B208DF8000000208DF8010063
:1003300002208DF8020001208DF80300684602F0CB
:10034000FCFB1FBD10B501210D4804F068FE01281B
:100350000FD101210A4804F073FE0121084804F07E
:100360005BFE08480068401C06490860064801F02A
:1003700051FB10BD01482430006870470008004060
:1003800000180040040000206800002000B58BB079
:100390000121022003F08AFF0121480603F0CFFF6C
:1003A0000121880603F0CBFF09220D219B4803F0B1
:1003B0006AFD09220C21994803F065FD4FF4405075
:1003C000029002208DF80C0002A9944803F0D0FCA2
:1003D00040208DF8040000208DF8050001208DF8E4
:1003E00006008DF8070001A802F0A7FB8C4802F078
:1003F00011FC08A802F032FD00208DF826008DF8CF
:1004000027008DF828008DF829008DF82A008DF836
:100410002B008DF822008DF8230003208DF8250095
:10042000ADF8200008A97E4802F00DFC0E208DF8E2
:100430001A0000208DF81B0001208DF81C00002000
:10044000ADF81000ADF81200ADF81400ADF81600CC
:10045000ADF8180001208DF81D0004A802F07DFC05
:10046000012202216E4802F077FF0BB000BD00B5FB
:1004700097B001216B4803F019FF0121102003F010
:100480006FFF07221146654803F0FDFC80201190A4
:1004900002208DF8480000208DF84A0003208DF8D6
:1004A000490000208DF84B0011A95C4803F060FC66
:1004B0005D4803F0A5F85D4813900020ADF85000AA
:1004C000ADF852004FF48060ADF854000420ADF850
:1004D00056000020ADF8580013A9534803F0F7F870
:1004E00001224021504803F027FA25208DF84000D2
:1004F00000208DF841008DF8420001208DF8430066
:1005000010A802F01AFB4A4804F076FE01A804F095
:100510003EFF4FF0006001904348001D02904548A7
:100520000390002004901E200590002006904FF4B8
:10053000806007900020089009904FF480700A9026
:100540004FF440300B9000200C900D900E900F90C7
:1005500001A9374804F0F2FE0121354804F028FFD4
:10056000012240F22441304803F0EFF901212E48E6
:1005700003F035F917B000BD10B540F224412A4808
:1005800003F01EFA40B3284800882748808828488E
:1005900004F051FF00BB0021254804F009FF244866
:1005A00004F029FFC0F11E00234908601E202049E5
:1005B00044390860081F006840F40020091F0860E3
:1005C00001211B4804F0F4FE1B480068122803D1E7
:1005D00018491A4801F056FC10BD10B50121104809
:1005E00002F021FF18B101210D4802F0B6FF10BD45
:1005F00010B502210A4802F016FF70B10221084826
:1006000002F0ABFF0E4A0021054802F08AFD0D4AB8
:100610000B491439022001F09BFC10BD000402407C
:10062000006800400200400000100140A086010068
:1006300088640240E4000020080000201C02002022
:100640004802002028030020B0EE401AB4EEE01A61
:10065000F1EE10FA02DDB0EE600A7047B0EE410A2A
:10066000FBE7B0EE401AB4EEE01AF1EE10FA02DD4C
:10067000B0EE410A7047B0EE600AFBE7B0EE401AF8
:1006800010B9B0EE410A7047B4EEE01AF1EE10FA7C
:1006900002DDB0EE600AF6E7B1EE600AB4EEC01A11
:1006A000F1EE10FA02D2B1EE600AECE7B0EE410AC8
:1006B000E9E730B50446F0EE400A002014B9B0EE88
:1006C000600A30BD002028E0F5EEC00AF1EE10FA15
:1006D00002DDB0EE600A01E0B1EE600A03EB8005D6
:1006E00095ED011AB4EEC10AF1EE10FA13D2F5EE4F
:1006F000C00AF1EE10FA02DDB0EE600A01E0B1EEE0
:10070000600A03EB800595ED001AB4EEC10AF1EE24
:1007100010FA00DB04E0451CE8B24D1E8542D3DC34
:1007200000BF02EB800595ED000A20EE200AC8E725
:10073000F0EE402A10B9B0EE620A7047F5EEC02A1A
:10074000F1EE10FA02DDB0EE620A01E0B1EE620AEB
:10075000B4EEE00AF1EE10FA39DBF5EEC02AF1EE64
:1007600010FA02DDB0EE620A01E0B1EE620AB4EE08
:10077000C10AF1EE10FA2AD831EE600AB5EEC00ACD
:10078000F1EE10FA02DD31EE600A03E031EE600AAC
:10079000B1EE400AB0EE404A32EEE00A80EE043A92
:1007A00032EE610AB5EEC00AF1EE10FA02DD32EE69
:1007B000610A03E032EE610AB1EE400AF0EE403A1F
:1007C000B0EE610A03EE230A20EE220AB5E722EE1C
:1007D000220AB2E710B500BF01226B21D02000F041
:1007E00062FAC4B24FF4FA70FFF73EFD00226B21AB
:1007F000D02000F058FAC4B23220FFF735FD752141
:10080000D02000F090FA7F490870084600786828E8
:10081000E2D100226B21D02000F045FAC4B2322090
:10082000FFF722FD00221921D02000F03CFA2044DD
:10083000C4B23220FFF718FD03221A21D02000F0A5
:1008400032FA2044C4B23220FFF70EFD10221B21E1
:10085000D02000F028FA2044C4B23220FFF704FD73
:1008600009221C21D02000F01EFA2044C4B23220FC
:10087000FFF7FAFC204610BD10B53B21D02000F058
:1008800052FA614908703C21D02000F04CFA5E49D0
:1008900048703D21D02000F046FA5B4988703E2127
:1008A000D02000F040FA5849C8703F21D02000F015
:1008B0003AFA554908714021D02000F034FA5249E3
:1008C00048714321D02000F02EFA4F49087244218C
:1008D000D02000F028FA4C4948724521D02000F081
:1008E00022FA494988724621D02000F01CFA464974
:1008F000C8724721D02000F016FA434908734821F6
:10090000D02000F010FA4049487310BD10B52DED0D
:10091000048B4FF47A7408EE104A9FED3C0AF0EE17
:10092000408A9FED3A0AB0EE409A0021384841854E
:100930008185C1853748C1853CE0FFF79DFF32487E
:10094000407A3149097A40EA012000B2304988846E
:100950002D48C07A2C49897A40EA012001B22C48FE
:10096000C1842948407B2849097B40EA012001B223
:1009700027480185B0F9240000EE100AB8EEC00A3D
:1009800030EE280AF0EE408A2148B0F9260000EE49
:10099000100AB8EEC00A30EE090AB0EE409A1C48C0
:1009A000B0F9280000EE100AB8EEC00A30EE290AAD
:1009B000F0EE409A2000A4F10104BED1B8EEC80ABE
:1009C000C8EE800ABDEEE00A10EE100A01B210482F
:1009D000C186B8EEC80AC9EE000ABDEEE00A10EE04
:1009E000100A01B20A480187B8EEC80AC9EE800AA7
:1009F000BDEEE00A10EE100A01B205484187BDECD9
:100A0000048B10BD0C0000208801002000000000B5
:100A1000F8000020400100201CB50121022003F055
:100A200045FC4FF48070009001208DF804008DF893
:100A3000050000208DF8060001208DF807006946AA
:100A4000CD4803F095F94FF40070009001208DF827
:100A500004008DF805008DF8060000208DF80700D1
:100A60006946C54803F084F91CBD062000BF01009B
:100A7000A0F10100FBD1704741F6583000E0401E64
:100A80000028FCD1704710B54FF40071BA4803F04C
:100A9000EBF94FF48071B84803F0E6F9FFF7E5FF92
:100AA0004FF40071B44803F0C5F908B9002010BD37
:100AB0004FF40071B04803F0D9F9FFF7D6FF4FF4B7
:100AC0000071AD4803F0B6F908B10020EFE74FF42C
:100AD0000071A94803F0CAF9FFF7C7FF0120E6E754
:100AE00010B54FF48071A44803F0C0F9FFF7BDFFC3
:100AF0004FF40071A04803F0B9F9FFF7B6FF4FF4C7
:100B000080719D4803F0B0F9FFF7AFFF4FF400711B
:100B1000994803F0A9F9FFF7A8FF10BD10B54FF4ED
:100B20008071954803F0A2F9FFF79FFF4FF4007121
:100B3000914803F09BF9FFF798FF4FF480718E48BE
:100B400003F092F9FFF791FF4FF480718A4803F0A8
:100B50008DF9FFF78AFF10BD10B54FF480718648FC
:100B600003F084F9FFF781FF4FF40071824803F02E
:100B70007BF9FFF77AFF4FF480717F4803F074F937
:100B8000FFF773FF4FF480717B4803F06FF9FFF7B5
:100B90006CFF10BD10B54FF48071774803F066F913
:100BA000FFF763FF4FF40071734803F05DF9FFF73F
:100BB0005CFF4FF48071704803F056F9FFF755FF62
:100BC0004FF400716C4803F035F940B14FF4807177
:100BD000694803F04BF9FFF748FF002010BD4FF4C0
:100BE0008071654803F042F9FFF73FFF0120F5E708
:100BF00070B5044608251FE04FF480715E4803F08D
:100C000035F9FFF732FF14F0800F05D04FF4007173
:100C1000594803F029F904E04FF40071564803F0F5
:100C200025F96006040EFFF720FF4FF4807152484B
:100C300003F01AF9FFF719FF2800A5F10101CDB261
:100C4000DAD14FF480714C4803F010F970BD70B5E3
:100C500008250024A901484803F006F917E06006BA
:100C6000040E4FF48071444803F000F9FFF7FDFED5
:100C70004FF48071404803F0F7F8FFF7F6FE4FF4A9
:100C800000713D4803F0D6F808B144F00104280093
:100C9000A5F10101CDB2E2D14FF48071364803F0E5
:100CA000E5F8204670BD70B506460C461546FFF7C0
:100CB000EAFE08B9002070BD3046FFF799FFFFF744
:100CC00069FF18B9FFF70CFF0020F4E72046FFF793
:100CD0008FFFFFF75FFF2846FFF78AFFFFF75AFFF6
:100CE000FFF7FEFEFFF7C8FE0120E4E770B50546FA
:100CF0000C46FFF7C8FE08B9002070BD2846FFF774
:100D000077FFFFF747FF18B9FFF7EAFE0020F4E787
:100D10002046FFF76DFFFFF73DFFFFF7E1FEFFF70E
:100D2000ABFE0120E9E770B504460D46FFF7ABFEC8
:100D300008B9002070BD2046FFF75AFFFFF72AFFD1
:100D400018B9FFF7CDFE0020F4E72846FFF750FF63
:100D5000FFF720FFFFF797FE611CC8B2FFF748FFBF
:100D6000FFF718FFFFF773FF0646FFF7F5FEFFF7E3
:100D7000B7FE3046DEE7000000040240F0EE400A15
:100D8000F6EE001A60EEA11AB0EE611AB0EE600A3B
:100D900010EE100AFE49A1EB600000EE100A21EEF1
:100DA000002AF7EE081A42EE401A61EE801AB0EE01
:100DB000610A704700B52DED108B97B0B0EE409AE8
:100DC000F0EE609AB0EE41AAF0EE61BAF0EE42AAFF
:100DD000B0EE62BAEF4890ED000A20EE000A8DED09
:100DE000130A90ED000AEC48D0ED000A20EE200A2C
:100DF0008DED120AE74890ED000AE848D0ED000AB0
:100E000020EE200A8DED110AE24890ED000AE44838
:100E1000D0ED000A20EE200A8DED100ADE4890ED9C
:100E2000000A20EE000A8DED0F0A90ED000ADB4863
:100E3000D0ED000A20EE200A8DED0E0AD64890ED86
:100E4000000AD748D0ED000A20EE200A8DED0D0AE9
:100E5000D24890ED000A20EE000A8DED0C0A90EDCC
:100E6000000ACF48D0ED000A20EE200A8DED0B0AD3
:100E700090ED000A20EE000A8DED0A0AFFF77AFADB
:100E8000C849086008460068C749096888420CD309
:100E9000C4480068C4490968401A00EE100AB8EE58
:100EA000400ADFEDC20AC0EE208ABE480068BE4993
:100EB00008606BEEAB0A4AEEAA0A4BEE0B0AB0EEE4
:100EC000600AFFF75BFFB0EE408AB0EE480A2BEEF7
:100ED000800AF0EE40BAB0EE480A2AEE800AF0EE40
:100EE00040AAB0EE480A2BEE000AB0EE40BA9DEDE3
:100EF0000D0ADDED110A30EE600AF0EE000A20EE78
:100F000020FA9DED120ADDED0B0A30EE200AF0EE1C
:100F1000000A60EE20FA9DED130ADDED0F0A70EE77
:100F2000600A9DED0C0A70EEC00A9DED0A0A30EED3
:100F3000800A8DED150A9DED150A2AEE800AB0EEA5
:100F400040CA0BEE6FCA6BEE0F0A9DED150AF0EE6C
:100F500060CA4BEEC0CA2BEEAF0AB0EE40DA0AEE22
:100F6000CFDAB5EEC0CAF1EE10FA51D0F5EEC0CA34
:100F7000F1EE10FA4CD0B5EEC0DAF1EE10FA47D02F
:100F80009FED8B0A6CEE000A8A4890ED000A00EE95
:100F9000A80A80ED000A9FED860A6CEE800A86485A
:100FA00090ED000A00EEA80A80ED000A9FED800A8D
:100FB0006DEE000A814890ED000A00EEA80A80ED6F
:100FC000000AF7EE000AB0EE490A00EE8C0A7948F2
:100FD000D0ED000A30EE200AB0EE409AF7EE000A9B
:100FE000B0EE690A00EEAC0A7348D0ED000A30EEAC
:100FF000200AF0EE409AF7EE000AB0EE4A0A00EE40
:101000008D0A6E48D0ED000A30EE200AB0EE40AAFC
:10101000614890ED000AB1EE400A20EE090A5F48EF
:10102000D0ED000A00EEE90A5D4890ED001AF0EEFE
:10103000400A41EE4A0A574890ED000A00EEA80A1D
:101040008DED140A90ED000A20EE090A5348D0ED08
:10105000000A00EE8A0A5248D0ED000A00EEE90AC2
:101060004D48D0ED000AF0EE60DA40EE28DA49484B
:1010700090ED000A20EE290A4748D0ED000A00EE64
:10108000CA0A4748D0ED000A00EE890A4348D0ED6D
:10109000000AB0EE60EA00EE28EA3E4890ED000A51
:1010A00020EE0A0A3C48D0ED000A00EEA90A3B48AF
:1010B000D0ED000A00EEC90A3948D0ED000AF0EE82
:1010C00060EA40EE28EADDED140A60EEA00A4DEE7B
:1010D000AD0A4EEE0E0A4EEEAE0AB0EE600AFFF713
:1010E0004DFEB0EE408A9DED140A20EE080A294814
:1010F00080ED000A2DEE880A274880ED000A2EEECA
:10110000080A264880ED000A2EEE880A244880ED61
:10111000000A224890ED000AF8EE000A20EE200AAC
:10112000D0ED000A20EE200A1D48D0ED000AB0EEF6
:10113000001A60EE810A90ED001A00EEC10AF7EE87
:10114000000A30EE200A10EE101A084604F002FCE5
:1011500041EC100B8DED020B0F4890ED000AF0EE04
:10116000000A20EE200A0D48D0ED000A20EE200AE9
:101170000848D0ED000AB0EE001A60EE810A084877
:1011800090ED001A00EE810A10EE101A084617E0E2
:10119000DF59375F100000201400002018000020E5
:1011A0001C00002064000020600000200024F4499E
:1011B0000AD7233C20000020240000202800002023
:1011C00004F0C8FB41EC100B8DED000B9DED021BF4
:1011D0009DED000B05F05CF88DED040B9DED040B0F
:1011E00051EC100B81F0004141EC100B8DED060B22
:1011F0009FEDFC0B53EC102B9DED060B51EC100BEF
:1012000004F097FA41EC100B8DED080B9DED080BE7
:1012100051EC100B04F0B1FBF4498860F448D0EDB8
:10122000000AB8EE000A20EE800AF248D0ED000A6B
:1012300020EE200AF048D0ED000AB0EE001A60EE71
:10124000810AEE4890ED001A00EE810A10EE101AA5
:10125000084604F07FFB41EC100B8DED020B9DED79
:10126000020B04F0E9FC8DED040B9DED040B51EC39
:10127000100B81F0004141EC100B8DED060B9FED42
:10128000D90B53EC102B9DED060B51EC100B04F019
:1012900050FA41EC100B8DED080B9DED080B51EC55
:1012A000100B04F06AFBD1494860D14890ED000A68
:1012B000F8EE000A20EE200AD0ED000A20EE200A07
:1012C000CE48D0ED000AB0EE001A60EE810A90ED33
:1012D000001A00EEC10AF7EE000A30EE200A10EE06
:1012E000101A084604F036FB41EC100B8DED040B90
:1012F000C24890ED000AF0EE000A20EE200ABD4838
:10130000D0ED000A20EE200ABB48D0ED000AB0EE76
:10131000001A60EE810AB64890ED001A00EE810ACC
:1013200010EE101A084604F015FB41EC100B8DED81
:10133000020B9DED041B9DED020B04F0A9FF8DED4A
:10134000060B9FEDA80B53EC102B9DED060B51ECFB
:10135000100B04F0EEF941EC100B8DED080B9DED38
:10136000080B51EC100B04F008FBA049086008467C
:1013700090ED020AA24880ED070A17B0BDEC108B71
:1013800000BD00B52DED108B89B0B0EE40BAF0EE87
:1013900060BAB0EE418AF0EE618AB0EE429AF0EEA9
:1013A000629A8DED069B8DED048B964890ED000BB7
:1013B000B0EE40CAF0EE60CA90ED000BB0EE40CA4D
:1013C000F0EE60CA9DED048B53EC182B8E4890ED27
:1013D000000B51EC100B04F005F941EC100BB0EED2
:1013E00040AAF0EE60AA9DED069B53EC192B51EC40
:1013F0001A0B04F0F7F841EC100BB0EE40FAF0EEE7
:1014000060FA53EC1F2B51EC1A0B04F004FA41EC78
:10141000100BB0EE40EAF0EE60EA53EC1C2B51ECFE
:101420001B0B04F080F941EC100BB0EE40FAF0EE2B
:1014300060FA53EC1E2B51EC1F0B04F07AF941ECCF
:10144000100B8DED000B53EC1C2B9DED000B51ECA4
:10145000100B04F0C7F841EC100BB0EE40DAF0EEE0
:1014600060DA53EC1E2B9FED690B51EC100B04F06E
:101470005AF941EC100BB0EE40FAF0EE60FA53EC82
:101480001A2B51EC1F0B04F054F941EC100B8DEDAD
:10149000020B9DED020B5C4880ED000B594880ED7E
:1014A00000DBB0EE4D0AF0EE6D0A09B0BDEC108B1A
:1014B00000BD00B52DED108B89B0B0EE40BAF0EE56
:1014C00060BAB0EE418AF0EE618AB0EE429AF0EE78
:1014D000629A8DED069B8DED048B4E4890ED000BCE
:1014E000B0EE40CAF0EE60CA90ED000BB0EE40CA1C
:1014F000F0EE60CA9DED048B53EC182B464890ED3E
:10150000000B51EC100B04F06DF841EC100BB0EE39
:1015100040AAF0EE60AA9DED069B53EC192B51EC0E
:101520001A0B04F05FF841EC100BB0EE40FAF0EE4D
:1015300060FA53EC1F2B51EC1A0B04F06CF941ECE0
:10154000100BB0EE40EAF0EE60EA53EC1C2B51ECCD
:101550001B0B04F0E8F841EC100BB0EE40FAF0EE93
:1015600060FA53EC1E2B51EC1F0B04F0E2F841EC37
:10157000100B8DED000B53EC1C2B9DED000B51EC73
:10158000100B04F02FF841EC100BB0EE40DAF0EE47
:1015900060DA53EC1E2B9FED1D0B51EC100B04F089
:1015A000C2F841EC100BB0EE40FAF0EE60FA53ECEA
:1015B0001A2B51EC1F0B04F0BCF841EC100B8DED15
:1015C000020B9DED020B144880ED000B114880EDDD
:1015D00000DBB0EE4D0AF0EE6D0A09B0BDEC108BE9
:1015E00000BD00000000006094A94C40980100205C
:1015F000140000201C000020100000201800002013
:10160000700300205000002058000020000000005F
:101610000000F03F400000204800002000B52DED04
:10162000108B89B0B0EE40BAF0EE60BAB0EE418AED
:10163000F0EE618AB0EE429AF0EE629A8DED069B72
:101640008DED048BE74890ED000BB0EE40CAF0EE54
:1016500060CA90ED000BB0EE40CAF0EE60CA9DED9E
:10166000048B53EC182BE04890ED000B51EC100B61
:1016700003F0B8FF41EC100BB0EE40AAF0EE60AA08
:101680009DED069B53EC192B51EC1A0B03F0AAFFAE
:1016900041EC100BB0EE40FAF0EE60FA53EC1F2B69
:1016A00051EC1A0B04F0B7F841EC100BB0EE40EA25
:1016B000F0EE60EA53EC1C2B51EC1B0B04F033F8FA
:1016C00041EC100BB0EE40FAF0EE60FA53EC1E2B3A
:1016D00051EC1F0B04F02DF841EC100B8DED000BBD
:1016E00053EC1C2B9DED000B51EC100B03F07AFF1B
:1016F00041EC100BB0EE40DAF0EE60DA53EC1E2B4A
:101700001FED3E0B51EC100B04F00DF841EC100BEB
:10171000B0EE40FAF0EE60FA53EC1A2B51EC1F0BCE
:1017200004F007F841EC100B8DED020B9DED020B60
:10173000AD4880ED000BAB4880ED00DBB0EE4D0A0C
:10174000F0EE6D0A09B0BDEC108B00BD70B52DED4B
:10175000088B0546002415B9BDEC088B70BDFFF75A
:101760008BF8A2484078A149097840EA012000B2EC
:101770009F4908809D48C0789C49897840EA0120AB
:1017800000B29B494880994840799849097940EAD4
:10179000012000B2964988809448407A9349097A9A
:1017A00040EA01219248C08E081A00B2904988840C
:1017B0008E48C07A8D49897A40EA01218C48008F91
:1017C000081A01B28A48C1848848407B8749097B4E
:1017D00040EA01218648408F081A01B284480185F9
:1017E000B0F9240000EE100AB8EEC00A8148824920
:1017F000097800EB810080ED000A7D48B0F92600F1
:1018000000EE100AB8EEC00A7A4828307A49097802
:1018100000EB810080ED000A7548B0F9280000EE69
:10182000100AB8EEC00A734850307349097800EBCB
:10183000810080ED000A9FED718ADFED708A9FEDD7
:101840006F9A00241DE06B4800EB840090ED000AC5
:1018500030EE080AB0EE408A6648283000EB84007B
:1018600090ED000A30EE280AF0EE408A61485030D0
:1018700000EB840090ED000A30EE090AB0EE409AC9
:10188000641C0A2CDFDB5C480078401C0A2190FBBA
:10189000F1F201FB120058490870F2EE040A88EEDA
:1018A000200ADFED570A20EE200A514880ED0F0A8A
:1018B000B2EE040AC8EE800A9FED510A20EE800ABB
:1018C00080ED100AF2EE040A89EE200ADFED4C0AE0
:1018D00020EE200A80ED110A0146B1F9000004F063
:1018E00009F841EC100BB0EE40BAF0EE60BA9FED93
:1018F000452B9FED461BFFF791FEB0EE40AAF0EEA0
:1019000060AA51EC1A0B04F006F800B23849C880FE
:10191000B1F9020003F0EEFF41EC100BB0EE40BA5B
:10192000F0EE60BA9FED372B9FED381BFFF7C1FD3E
:10193000B0EE40AAF0EE60AA51EC1A0B03F0EBFFF8
:1019400001B22B4801810146B1F9040003F0D2FF36
:1019500041EC100BB0EE40BAF0EE60BA9FED292BCF
:101960009FED2A1BFFF70DFDB0EE40AAF0EE60AA36
:1019700051EC1A0B03F0CFFF01B21D48418100BFAB
:10198000EAE610B504460120FFF7E0FE1848B0F97A
:101990000A0003EE100AB8EEC33AF0EE432A1448E8
:1019A000B0F9080003EE100AB8EEC33AB0EE432ACD
:1019B0000F48B0F9060003EE100AB8EEC33AF0EE95
:1019C000431A0B4890ED113AB0EE431A90ED103ADD
:1019D000F0EE430A90ED0F3AB0EE430AFFF7EAF952
:1019E00010BD0000300000203800002088010020D9
:1019F000F8000020A40100202D00002000000000BD
:101A0000E4A40B3A00000000000018407B14AE472D
:101A1000E17A943F10B5044694F90000B0F1FF3F1D
:101A200022D000B3012802D002281ED109E0104BB9
:101A3000104A1149114800F01BFB08B10220207028
:101A400013E00D4A0E49A01C00F004FA0B4A0A49A3
:101A5000002000F08AFB094B84330A4A0121002050
:101A600000F0E1FA01E000E000BF00BF012010BD7E
:101A7000F8030020DC03002070030020DC020020BB
:101A80001C020020340200204169012902D1C169F1
:101A9000416003E0C1690160C1694160D0E9002192
:101AA000891A816090ED020AB8EE400ADFEDFE0A65
:101AB00080EE201A80ED031A90ED030AF7EE000A7B
:101AC000B4EEE00AF1EE10FA04DDB7EE000A80EDA4
:101AD000030A01E0002181618169C82901D9C82177
:101AE000816190ED030A704710B503460C46987C5F
:101AF00010F0100F06D040F28A20EC490860EC4943
:101B0000086007E0EB480088E8490860EA48008878
:101B1000E7490860987C10F0010F1AD0E748007C74
:101B200010F0010F03D00120E449486102E00020D9
:101B3000E2494861E148FFF7A7FFDC48D0ED000A21
:101B4000F8EEE00A20EE200ABDEEC00A80ED000AA1
:101B500026E0987C10F0020F1DD0D848007C10F0D1
:101B6000020F03D00120D549486102E00020D3498B
:101B70004861D248FFF788FFCC480068404200EE39
:101B8000900AF8EEE00A20EE200ABDEEC00AC7482F
:101B900080ED000A04E00020C4490860C74948619C
:101BA000987C10F0040F1AD0C548007C10F0040F88
:101BB00003D00120C249486102E00020C0494861C9
:101BC000BF48FFF761FFBA48D0ED000AF8EEE00A1F
:101BD00020EE200ABDEEC00A80ED000A26E0987CC7
:101BE00010F0080F1DD0B648007C10F0080F03D08D
:101BF0000120B349486102E00020B1494861B04882
:101C0000FFF742FFAA480068404200EE900AF8EE53
:101C1000E00A20EE200ABDEEC00AA54880ED000AC9
:101C200004E00020A2490860A5494861588AA349F8
:101C30000861588AA24908619C4890ED000AB8EEF4
:101C4000C00A84ED000A9A480068404200EE100A7B
:101C5000B8EEC00A84ED010AB3F90A00002817DDC6
:101C600094ED070ADFED970AB4EEE00AF1EE10FA00
:101C700029D294ED050AB3F90A0000EE900AF8EEB5
:101C8000E00A9FED911A00EE810A84ED060A1AE03F
:101C9000B3F90A00002816DA94ED070ADFED8B0A83
:101CA000B4EEE00AF1EE10FA0DDD94ED050AB3F999
:101CB0000A0000EE900AF8EEE00A9FED831A00EEAB
:101CC000810A84ED060A94ED060A84ED050A0120D6
:101CD00010BD70B504460D4676480088734908600B
:101CE00075480088724908606088A0F58060002807
:101CF00003DD6088A0F5806002E06088C0F5806048
:101D000032282EDD0120724948616088A0F580608C
:101D100032280EDD0846FFF7B7FE6448D0ED000A12
:101D2000F8EEE00A20EE200ABDEEC00A80ED000ABF
:101D30001FE06088A0F5806010F1320F19DA644866
:101D4000FFF7A2FE59480068404200EE900AF8EE04
:101D5000E00A20EE200ABDEEC00A544880ED000AD9
:101D600007E000205A494861504908605848FFF789
:101D70008BFE2088A0F58060002803DD2088A0F578
:101D8000806002E02088C0F5806032282EDD0120CE
:101D9000504948612088A0F5806032280EDD084651
:101DA000FFF772FE4248D0ED000AF8EEE00A20EE9E
:101DB000200ABDEEC00A80ED000A1FE02088A0F5D1
:101DC000806010F1320F19DA4248FFF75DFE3848A3
:101DD0000068404200EE900AF8EEE00A20EE200A89
:101DE000BDEEC00A324880ED000A07E00020394904
:101DF00048612F4908603748FFF746FE2B4890EDB1
:101E0000000AB8EEC00A85ED000A294890ED000AE4
:101E1000B8EEC00A85ED010A95ED050AA088C0F567
:101E2000806000EE900AF8EEE00A9FED2B1A00EEBB
:101E3000810A85ED060AD5ED060AB0EE600ADFEDEF
:101E4000270A0120FEF71AFC95ED060A85ED050A22
:101E5000012070BD70B504460D461646287A02284A
:101E600002D10020207001E00120207024B1314611
:101E70002846FFF72EFF03E031462846FFF734FEE1
:101E8000012070BD024608784B7840EA0320C0F379
:101E90000A0010804878C0108B7840EA4310C0F3E5
:101EA0000A00508088781BE0000016447000002073
:101EB000740000206C0000206E0000205C020020F6
:101EC0007C02002000002042CDCC4C3D000020C20E
:101ED0009C020020BC020020A69BC43B0000704274
:101EE0008011CB7840EA83000B7940EA8320C0F36D
:101EF0000A009080087940104B7940EAC310C0F383
:101F00000A00D08048790011800810724879C0F327
:101F1000011050728879CB7940EA0320404200B228
:101F20005081087A4B7A40EA032003B29381887A81
:101F3000CB7A40EA032003B2D3810B7B13744B7B33
:101F40005374887BCB7B40EA03205082012070478A
:101F500070B50346002033B1012B16D0022B34D0CC
:101F6000032B5DD147E000200CE0002505EB400687
:101F700001F10B04A555012404EB400601F10B040B
:101F8000A555401C0428F0DB4BE04FF400740C60B6
:101F900000240C724C7208248C72002012E032F87B
:101FA0001040C4F30725002404EB400601F10B04A4
:101FB000A55512F81050012404EB400601F10B0462
:101FC000A555401C0428EADB2BE04C69B4F5007FE2
:101FD00010D94C69B4F5017F0CD82224655C21240A
:101FE000645C05EB042425B24C69A4F2012422F8B8
:101FF000145016E000BF4C69B4F5007F0FD94C694E
:10200000B4F5017F0BD82024655CCC7F05EB04245C
:1020100025B24C69A4F2012422F8145001E000BF5B
:1020200000BF00BF70BD2DE9F04705460E461746BC
:10203000984615B90020BDE8F0874246394630463B
:10204000FFF786FF3946094800F076FF81460024F5
:1020500001E0601C04B24946044801F005F801287B
:1020600001D0FF2CF5DB0120E5E70000006800400F
:102070002DE9F04104460D4616461F46604820648F
:1020800031462046226C904796ED050A84ED170AEA
:1020900096ED060A84ED180A59492966394605F174
:1020A00020002A6E90470120BDE8F08170B50546FA
:1020B0000C4694ED000AB1EE400AD4ED010A70EE30
:1020C000200A94ED020A94ED031A01EE200A85ED30
:1020D0001D0A94ED000AD4ED010A70EE200A94ED79
:1020E000020A94ED031A01EE200A85ED1E0A94ED12
:1020F000000AD4ED010A70EE600A94ED020A94ED34
:10210000031A01EE200A85ED1F0A94ED000AB1EED4
:10211000400AD4ED010A70EE600A94ED020A94EDD3
:10212000031A01EE200A85ED200A002619E005F1C8
:10213000740000EB860090ED001AD5ED181A21EE20
:10214000211AB0EE410A95ED171AF0EE410A01206E
:10215000FEF794FA05F1640000EB860080ED000ABA
:10216000761C042EE3DB012070BD2DE9F04107460B
:102170000D46144617B90020BDE8F081214890EDC6
:10218000071AF0EE410A90ED051AB0EE410A05F18A
:102190002000696E8847002201211A482030AB6E6A
:1021A000984785ED020A29462046FFF77FFF002663
:1021B00021E004F14C0030F9160001EE100AB8EEEF
:1021C000C11AF0EE410A04F1640000EB860090EDC4
:1021D000001AB0EE410A2046616C884700220121B6
:1021E00005F12000A36C984704F1840000EB860001
:1021F00080ED000A761C042EDBDB0120BCE700002A
:10220000C52200087003002070B504460D4616462E
:10221000207810B99FED390A70BD94ED010AD4ED14
:102220000C0A20EE200A84ED060A94ED060A84EDDD
:102230000E0A15B394ED040AD4ED0C0A30EE200A10
:1022400084ED040A94ED040AD4ED020A20EE200A7B
:1022500084ED070A94ED081AF0EE410A94ED071A8E
:10226000B0EE410A207BFEF709FA94ED0E0AD4ED98
:10227000070A30EE200A84ED0E0ABEB194ED0C0A76
:10228000D4ED0B0A30EE600AD4ED050A20EE200AE8
:1022900084ED090A94ED0C0A84ED0B0A94ED0E0A04
:1022A000D4ED090A30EE200A84ED0E0A94ED0E0AF0
:1022B000B2E780ED0A0AC0ED0D0A30EE601A80ED3B
:1022C0000C1A704791ED000A80ED010A91ED010AA8
:1022D00080ED020A91ED020A80ED050A91ED030AF4
:1022E00080ED080A91ED040A80ED0F0AAFF23D027D
:1022F0004264AFF2EB02826470470000000000000D
:1023000000B597B00121FE4801F0D0FF012148043B
:1023100002F015F802208DF8480000208DF84A00E0
:1023200001208DF84B0003208DF849000420119006
:1023300011A9F44801F01CFD0820119011A9F148E1
:1023400001F016FD07220221EE4801F09CFD072254
:102350000321EC4801F097FD4FF4E1301390002089
:10236000ADF85000ADF85200ADF854000C20ADF8B7
:1023700056000020ADF8580013A9E34801F0A7F972
:1023800001224021E04801F0D7FA01228021DE48F5
:1023900001F0D2FA0121DC4801F021FAFF2250219C
:1023A000DA4803F00DF9DA4802F026FF4FF000603A
:1023B0000190D548001D0290D4480390002004905D
:1023C00050200590002006904FF480600790002078
:1023D000089009904FF480700A904FF440300B90B1
:1023E00000200C900D900E900F9001A9C84802F0AB
:1023F000A5FFC748183002F0FFFE4FF000600190C3
:10240000C148001D0290C34803904020049015204D
:102410000590002006904FF48060079000200890FF
:1024200009900A904FF400300B9000200C9001208E
:102430000D9000200E900F9001A9B548183002F0C1
:102440007DFF26208DF8400001208DF841008DF899
:1024500042008DF8430010A800F06FFB11208DF8AA
:10246000400002208DF841008DF8420001208DF8D7
:10247000430010A800F061FB012240F22441A24871
:1024800001F063FA01221021A148183003F01CF872
:1024900001219F4802F08CFF01219D48183002F075
:1024A00087FF01224021984801F046FA012280214D
:1024B000954801F041FA0121934801F090F917B0D5
:1024C00000BD00B597B001218D48401C01F0EEFE23
:1024D0000121880401F033FF02208DF8480000201C
:1024E0008DF84A0001208DF84B0003208DF849003B
:1024F0004FF48060119011A9874801F039FC4FF426
:102500000060119011A9844801F032FC07220A21D1
:10251000814801F0B8FC07220B217F4801F0B3FC91
:102520004FF4E13013900020ADF85000ADF85200A8
:10253000ADF854000C20ADF856000020ADF858005E
:1025400013A9764801F0C3F801224021734801F035
:10255000F3F901228021714801F0EEF901216F4861
:1025600001F03DF96A48603802F046FE4FF0006025
:1025700001906A48001D029069480068039000209D
:10258000049005200590002006904FF4806007908D
:102590000020089009904FF480700A904FF440306A
:1025A0000B9000200C900D900E900F9001A95848B0
:1025B000603802F0C3FE27208DF8400000208DF81F
:1025C00041008DF8420001208DF8430010A800F072
:1025D000B4FA012240F22441504801F0B6F9012139
:1025E0004B48603802F0E4FE012240214B4801F0E4
:1025F000A3F90121494801F0F2F817B000BD10B568
:1026000048494348183002F030FF60B1454940481E
:10261000183002F045FF00213D48183002F0C8FE96
:1026200000204149087010BD70B504460D4600BF3A
:102630003D4800780028FBD101203B4908702A461C
:102640002146344802F0AAFF29463148183002F0EA
:10265000D0FE01212E48183002F0AAFE70BD10B540
:10266000002440F224412D4801F0AAF9F8B12B488A
:1026700000882A48001D00882548603802F0DBFEEB
:10268000A8B900212248603802F092FE2048603844
:1026900002F0B1FEC0F105002449086005201C4984
:1026A0008839C86201211A48603802F081FE10BDE5
:1026B00010B5002440F22441134801F081F90028AC
:1026C0007ED0114800881048001D0088104802F094
:1026D000B2FE002874D100210D4802F069FE0C48BA
:1026E00002F089FEC0F150001149086050201149E4
:1026F00008604FF00101064802F05AFE03481BE053
:102700000100200000000240004400400C040020B2
:10271000886002409A040020000402400048004003
:1027200078000020000020207C0000208C00002089
:10273000900000208C6002400078A528CAD1E448AF
:102740004079012806D0022864D0032876D00428D6
:102750005FD1C0E0DE48C079DD49097A00EB012095
:10276000DB49497A00EB0140D949897A00EB0160E5
:10277000D8490880D648C07AD549097B00EB0120AA
:10278000D4494880D248407BD3490870D048807BE8
:102790004870CF48C07B8870CD48007CC870084620
:1027A00090ED000ACB4880ED010AC948407CCB4936
:1027B0000870C748807C4870C548C07C887000E0BD
:1027C000EBE0C348007DC870084690ED000AC148A0
:1027D00080ED020A90ED010AD0ED020A20EE200AF7
:1027E00080ED030ABA4890F82600BD490870B84841
:1027F00090F827004870B64890F828008870B448D0
:1028000090F82900C870084690ED000AB14880EDA4
:10281000050AC1E0AE48C0790009B2494870AC4829
:10282000C07900F00F000870A948007AA849497AD9
:1028300000EB0120AB494880AEE0FFE7A448C07937
:10284000A9490870A248007A4870A148407A887067
:102850009F48807AC870084690ED000AA34880ED32
:10286000000A9B48C07AA24908709948007B4870CA
:102870009748407B88709648807BC870084690EDEA
:10288000000A9A4880ED010A9148C07B9949087076
:102890008F48007C48708E48407C88708C48807CD3
:1028A000C870084690ED000A904880ED020A8848FA
:1028B000C07C914908708648007D48708448407DFE
:1028C00088708348807DC870084690ED000A87486C
:1028D00080ED030A60E07E48C07900F0010087497E
:1028E00008707B48C079C0F3800048707848C07990
:1028F000C0F3001088707648C0798009C8707448A9
:10290000007A00F0070008717148007AC0F30210E5
:1029100048716F48407A00F0070088716C48407A2F
:10292000C0F30210C8716A48807A00F0070008728C
:102930006748807AC0F3021048726548C07A00F098
:10294000070088726248C07AC0F30210C8726048FB
:10295000007B00F0010008735D48007BC0F30010AD
:1029600048735B48407BC8815948807B0002C8811E
:102970005748C07B08825648007C000208825448B1
:10298000407C00F0070088745148407CC0F302107E
:10299000C8744F48807C087500BF10BD30B5034631
:1029A00013B94FF6FF7030BD09E013F8014B82EA0E
:1029B0000400C0B2524D35F8100080EA222208000F
:1029C000A1F10101F1D11046EDE770B505460C46C5
:1029D00000260DB1022C00D870BDA11E4948028806
:1029E0002846FFF7DBFF0646A01E2E54310A601E64
:1029F000295400BFF0E730B5034605E013F8010B9A
:102A000080EA02044048025D0800A1F10101F5D10D
:102A1000104630BD70B505460C4600260DB1022C9F
:102A200000D870BD611EFF222846FFF7E4FF06466E
:102A3000601E2E5400BFF4E710B50446A520207098
:102A40000C2060700020A0700420E070052120465A
:102A5000FFF7E0FF052060710020A07115212046DE
:102A6000FFF7B3FF10BD70B505460C4600260DB14B
:102A7000022C01D8002070BD611EFF222846FFF7FE
:102A8000BAFF0646601E285CB04201D10120F2E781
:102A90000020F0E770B505460C4600260DB1022C6B
:102AA00001D8002070BDA11E164802882846FFF7F5
:102AB00075FF0646F1B2A01E285C814206D1601E59
:102AC000285CB0EB162F01D10120EBE70020E9E7ED
:102AD0000C0400205C0400209C000020A0000020CA
:102AE000A800002094000020AC0000207404002006
:102AF000B0000020B4000020B800002084040020B2
:102B00005467000888000020536600080648804784
:102B100006480047FEE7FEE7FEE7FEE7FEE7FEE7C2
:102B2000FEE7FEE7FEE7FEE72F3B0008890100080D
:102B300033490143334A1160704770B500210023C7
:102B40000F22C47824B32F4C246804F4E064C4F545
:102B5000E064C4F30721C1F10404E3B20A414478FC
:102B60009C40E1B28478144021430C07210E264C8E
:102B700005786155047804F01F050124AC40057800
:102B80006D114FF0E02606EB8505C5F8004109E020
:102B9000047804F01F040125A5401C4C067876112A
:102BA00044F8265070BD1A4A0A400243154B1B1FB9
:102BB0001A60704739B1134A121D12680243114B53
:102BC0001B1D1A6006E00F4A121D126882430D4B4E
:102BD0001B1D1A607047042808D14FF0E0210969D5
:102BE00041F004014FF0E022116107E04FF0E021D5
:102BF000096921F004014FF0E022116170470000E3
:102C00000000FA050CED00E000E400E080E100E0E7
:102C100080FFFF1F10B50446FE48844209D1012100
:102C2000480601F0E1FB00214FF0007001F0DCFBF1
:102C300008E00121880601F0D7FB00214FF08060F9
:102C400001F0D2FB10BD30B502460020002314680D
:102C500024F002041460146844F00104146000E0DD
:102C60005B1C546814F0010F03D1A3F57F44FF3CB3
:102C7000F6D1546814F0010F01D100206CE08C797A
:102C8000012C04D1146844F08004146003E014683B
:102C900024F080041460CC79012C04D1146844F031
:102CA0004004146003E0146824F0400414600C7ABB
:102CB000012C04D1146844F02004146003E014686B
:102CC00024F0200414604C7A012C04D1146844F0E0
:102CD0001004146003E0146824F0100414608C7A6B
:102CE000012C04D1146844F00804146003E0146853
:102CF00024F008041460CC7A012C04D1146844F048
:102D00000404146003E0146824F0040414608C7854
:102D1000A407CD7844EA05640D7944EA05444D7969
:102D200044EA05540D886D1E2C43D461146824F0C8
:102D300001041460002300E05B1C546814F0010FD0
:102D400003D0A3F57F44FF3CF6D1546814F0010F83
:102D500001D0002000E0012030BD10B50021837AB1
:102D6000012202FA03F1AC4A126842F00102AA4BB6
:102D70001A60A94A1C3212688A43A74B1C331A6096
:102D8000027BCAB9A44A0C3212688A43A24B0C33A4
:102D90001A604288C38842EA03439F4A4032847AD9
:102DA00042F834300288838842EA03439A4A403228
:102DB000847A02EBC4025360027B012A19D1964A3D
:102DC0000C3212680A43944B0C331A604288038811
:102DD00042EA0343904A4032847A42F83430C2884F
:102DE000838842EA03438C4A4032847A02EBC4026D
:102DF0005360C27A3AB9884A121D12688A43864BD8
:102E00001B1D1A6006E0844A121D12680A43824B99
:102E10001B1D1A60028932B97F4A143212688A4334
:102E20007D4B14331A600289012A06D17A4A143282
:102E300012680A43784B14331A60427B012A06D188
:102E4000754A1C3212680A43734B1C331A60724A6B
:102E5000126822F00102704B1A6010BD00218171CE
:102E6000C171017241728172C1728170C17003219E
:102E70000171022141710121018070476649096891
:102E800041F00101644A11601146096843F60E726F
:102E90009143614A11601146096841EA00211160BD
:102EA0001146096821F001011160704721B10268E3
:102EB00042F48032026003E0026822F48032026051
:102EC0007047E1B1026842F0800202604FF4C272C2
:102ED000125842F480734FF4C27213504FF4CA7206
:102EE000125842F480734FF4CA7213504FF4D272E6
:102EF000125842F480734FF4D27213501BE00268F0
:102F000022F0800202604FF4C272125822F48073E1
:102F10004FF4C27213504FF4CA72125822F48073E5
:102F20004FF4CA7213504FF4D272125822F48073C5
:102F30004FF4D2721350704710B5024600209368C8
:102F400003F08063B3F1806F00D110E0936803F069
:102F50000063B3F1006F01D1012008E0936803F032
:102F60008053B3F1805F01D1022000E004200428E7
:102F700079D002F5C07303EB00131B6803F0010462
:102F800002F5C07303EB00131C600B7A7BB94B7A1C
:102F90000C8843EA445302F5C07404EB001424681F
:102FA000234302F5C07404EB0014236010E00B7A95
:102FB0004C6843EAC4034C7A234302F5C07404EB23
:102FC00000142468234302F5C07404EB001423604A
:102FD0008B7A03F00F038B7202F5C07303EB0013BF
:102FE0005B6823F00F0402F5C07303EB00135C6011
:102FF00002F5C07303EB00135B688C7A234302F580
:10300000C07404EB001463608B7B1C064B7B44EAAA
:10301000034403E000640040006600400B7B44EA88
:103020000323CC7A234302F5C07404EB0014A3609D
:103030008B7C1C064B7C44EA03440B7C44EA032350
:10304000CC7B234302F5C07404EB0014E36002F56B
:10305000C07303EB00131B6843F0010402F5C07357
:1030600003EB00131C6010BD10B50246002321B114
:10307000012907D002290FD109E09068F84C00EA35
:1030800004030BE09068F74C00EA040306E0906844
:10309000F54C00EA040301E0002300BF00BFF34C3D
:1030A000181BA34216D007DC83B16FF0806018189C
:1030B0000ED0022818D111E0B0F5007F10D0EC4CF2
:1030C000001909D0B0F5003F0ED10BE002230DE04E
:1030D00000230BE0002309E0002307E0012305E0C3
:1030E000012303E0012301E0002300BF00BFD8B2A9
:1030F00010BD21B1012907D002290FD109E0826852
:1031000042F0800282600AE0826842F400428260FB
:1031100005E0826842F40002826000E000BF00BF68
:10312000704710B500F5D87303EB01131B6803F06B
:1031300004031372137A53B900F5D87303EB011328
:103140001B6840F2FF7404EA5353136009E000F572
:10315000D87303EB01131B686FF0604404EAD303D8
:10316000536000F5D87303EB01131B6803F00203EF
:10317000537200F5D87303EB01135B6803F00F0380
:10318000937200F5D87303EB01135B681B0AD374C9
:1031900000F5D87303EB01139B68D37200F5D87365
:1031A00003EB01139B681C0A147300F5D87303EB3F
:1031B00001139B681C0C547300F5D87303EB0113C7
:1031C0009B681B0E937300F5D87303EB0113DB6848
:1031D000D37300F5D87303EB0113DB681C0A147476
:1031E00000F5D87303EB0113DB681C0C547400F575
:1031F000D87303EB0113DB681B0E937421B9C3680A
:1032000043F02003C36003E0036943F0200303613C
:1032100010BD21B9C26842F02002C26003E0026919
:1032200042F02002026170470246002019B9D368BB
:1032300003F0030006E0012903D1136903F0030042
:1032400000E00020704710B502460B4600204FF604
:10325000FF71BBB9146824F0020444F00104146047
:1032600000E0491E546804F00304012C01D0002939
:10327000F7D1546804F00304012C01D0002032E09F
:10328000012030E0012B13D1146824F003041460F2
:1032900000E0491E546814F0030F01D00029F8D152
:1032A000546814F0030F01D000201CE001201AE044
:1032B000022B17D1146824F0010444F002041460B6
:1032C00000E0491E546804F00304022C01D00029D8
:1032D000F7D1546804F00304022C01D0002002E06E
:1032E000012000E0002010BD014600200A6822F005
:1032F000010242F002020A604A6802F00302022A56
:1033000000D10120704701464FF6FF7200200B6884
:1033100023F002030B6000E0521E4B6803F002032F
:10332000022B01D1002AF7D14B6803F00203022BD4
:1033300000D001207047014600208A6902F0700029
:103340007047014600208A69100E70470146002030
:103350008A69C2F3074070471AB143690B4343615E
:1033600002E043698B434361704710B50246002079
:1033700011F4700F08D09369C1F31304234201D0F4
:1033800001202DE000202BE011F0807F08D0536851
:10339000C1F31304234201D0012021E000201FE0EB
:1033A00011F0006F08D09368C1F31304234201D0D9
:1033B000012015E0002013E011F0007F08D0D36851
:1033C000C1F31304234201D0012009E0002007E0EB
:1033D0001369C1F31304234201D0012000E000204F
:1033E00010BD0022234B994202D10023836111E0DA
:1033F000C1F3130211F0007F01D0C2600AE011F0A6
:10340000806F01D0026105E011F0006F01D0826091
:1034100000E042607047024600200A4201D00120CD
:1034200000E00020704770B504460D460026606934
:10343000284272D0B5F5807F69D01DDC082D42D0BE
:1034400006DC012D2DD0022D31D0042D7FD134E0AA
:10345000102D3ED0202D42D0402D78D145E00000E7
:10346000030000040003000800000310000100082E
:103470000001FFF77000F030B5F5004F61D009DCB6
:10348000B5F5007F4AD0B5F5806F4DD0B5F5006F2A
:103490005DD150E0B5F5803F2DD0B5F5003F56D158
:1034A0002FE0A0685549FFF7B6FF064651E0E068F7
:1034B0000321FFF7B0FF06464BE0E0680821FFF765
:1034C000AAFF064645E0E0681021FFF7A4FF064684
:1034D0003FE020690321FFF79EFF064639E020699F
:1034E0000821FFF798FF064633E020691021FFF717
:1034F00092FF06462DE060680821FFF78CFF064624
:1035000027E060681021FFF786FF064621E0A069EA
:103510000121FFF780FF06461BE01BE0A0690221A6
:10352000FFF779FF064614E0A0690421FFF773FF57
:1035300006460EE00BE0A0697021FFF76CFF06461F
:1035400007E060680421FFF766FF064601E00026F9
:1035500000BF00E00026304670BDB1F5007F3AD0D4
:103560000FDC202928D006DC01291CD004291DD01D
:10357000082940D11DE0402921D0B1F5807F3AD102
:1035800026E0B1F5004F31D006DCB1F5806F25D0D3
:10359000B1F5006F2FD124E0B1F5803F12D0B1F525
:1035A000003F28D111E0154A826025E00822C26060
:1035B00022E01022C2601FE0082202611CE01022FB
:1035C000026119E00822426016E01022426013E016
:1035D0000422426010E0042242600DE004224260B6
:1035E0000AE0002282610422426005E0002282613A
:1035F0000422426000E000BF00BF704701010100EB
:1036000010B50446FA48844208D10121102000F088
:10361000FCFE0021102000F0F8FE57E0F54884423F
:1036200009D10121480400F0DFFE00214FF40030F1
:1036300000F0DAFE4AE0F048844209D10121880412
:1036400000F0D2FE00214FF4802000F0CDFE3DE0DE
:10365000EA48844209D10121C80400F0C5FE0021D6
:103660004FF4002000F0C0FE30E0E548844209D16C
:103670000121080500F0B8FE00214FF4801000F091
:10368000B3FE23E0DF48844208D10121202000F06E
:10369000BCFE0021202000F0B8FE17E0DA4884428A
:1036A00009D10121880700F09FFE00214FF08040E2
:1036B00000F09AFE0AE0D548844207D10121400576
:1036C00000F092FE0021600500F08EFE10BD2DE995
:1036D000FF4705460E460024A14600BFA046B0891C
:1036E00000B100BF2C8A24F44054F08804432C829B
:1036F000AC8941F20C608443B088318908437189F8
:1037000008430443AC81AC8A24F44074B089044378
:10371000AC82684600F0F9FCB548854202D0B94851
:10372000854202D1DDF80C9001E0DDF80890A8890F
:1037300010F4004F08D009EBC90000EB0910316804
:103740004900B0FBF1F707E009EBC90000EB0910F5
:1037500031688900B0FBF1F76420B7FBF0F0040199
:103760002009642101FB1078A88910F4004F08D0CB
:10377000322000EBC800B0FBF1F000F0070004437A
:1037800008E0322000EB08106421B0FBF1F000F0FB
:103790000F0004432C81BDE8FF874FF416510160F0
:1037A00000218180C18001810C2141810021818122
:1037B000704710B502460020108A20F470600B8814
:1037C0004C8823438C882343CC882343184310829E
:1037D00010BD0021018041808180C180704721B1EE
:1037E000828942F40052828104E082894DF6FF739F
:1037F0001A4082817047028B02F47F420283028B5F
:103800000A430283704721B1828942F400428281D7
:1038100003E08289C2F30E028281704721B1828A5D
:1038200042F40062828204E0828A4FF2FF731A40FF
:1038300082827047C1F308028280704701468888FF
:10384000C0F308007047028A4FF6F0731A400282F4
:10385000028A0A430282704721B1828942F0020241
:10386000828104E082894FF6FD731A40828170479D
:1038700082894FF2FF731A40828182890A438281D2
:103880007047028A4FF6DF731A400282028A0A43A7
:103890000282704721B1028A42F48042028204E02F
:1038A000028A4BF6FF731A4002827047818941F009
:1038B00001018181704721B1828A42F0080282822F
:1038C00004E0828A4FF6F7731A4082827047028BB7
:1038D000D2B20283028B42EA01220283704721B1F5
:1038E000828A42F02002828204E0828A4FF6DF73ED
:1038F0001A408282704721B1828A42F0100282828D
:1039000004E0828A4FF6EF731A4082827047828AFF
:103910004FF6FB731A408282828A0A438282704782
:1039200021B1828A42F00202828204E0828A4FF64A
:10393000FD731A40828270471AB1838A0B438382D7
:1039400002E0838A8B4383827047F0B503460024EC
:10395000002600250020A1F510676A3F00D100BFB6
:103960001846C1F3421401F01F06012707FA06F5B5
:10397000012C01D10C3004E0022C01D1103000E008
:1039800014301AB107682F43076002E00768AF439D
:103990000760F0BD02460020B1F5007F00D100BFF6
:1039A00013880B4201D0012000E00020704701F491
:1039B0000072B2F5007F00D100BFCA430280704799
:1039C00070B502460024002300250020A1F51066F2
:1039D0006A3E00D100BFC1F3421501F01F0301266A
:1039E00006FA03F3012D13D19689334017E0000046
:1039F000001001400044004000480040004C0040DE
:103A0000005000400014014000780040007C00405D
:103A1000022D02D1168A334001E0968A33400C12FF
:103A2000012606FA04F41688344013B10CB10120C3
:103A300000E0002070BD10B500220023A1F5106445
:103A40006A3C00D100BF0A1201249440A3B2DC43B7
:103A5000048010BD0CB500200190009076480068ED
:103A600040F480307449086000BF7348006800F477
:103A7000003000900198401C0190009818B90198FE
:103A8000B0F5A04FF1D16C48006810F4003F02D0AF
:103A90000120009001E0002000900098012845D10D
:103AA00065484030006840F080506349403108600C
:103AB0006248006840F44040604908605E48083051
:103AC00000685D49083108600846006840F400401D
:103AD00008600846006840F4A05008605848091F74
:103AE0000860081F006840F08070091F086000BF70
:103AF0005148006810F0007FFAD040F2057051493B
:103B000008604D480830006820F003004A49083139
:103B100008600846006840F00200086000BF4648A0
:103B20000830006800F00C000828F8D10CBD70B512
:103B3000012401254448006840F4700042490860AF
:103B40003D48006840F001003B49086000203A49C8
:103B500008310860384800683C4908403649086028
:103B60003B48091D0860081F006820F48020091FD9
:103B70000860002030490C310860FFF76BFFE00659
:103B800031498039086070BD70B5002000220223E1
:103B900000240221284D08352D6805F00C0020B1C5
:103BA000042806D0082834D107E02A4D2A4E356073
:103BB00033E02A4D284E35602FE01F4D2D1D2D6816
:103BC000C5F380541C4D2D1D2D6805F03F0154B1E7
:103BD000224DB5FBF1F5184E361D3668C6F3881632
:103BE00005FB06F209E01B4DB5FBF1F5124E361D43
:103BF0003668C6F3881605FB06F20F4D2D1D2D689D
:103C0000C5F301456D1C6B00B2FBF3F5124E356038
:103C100003E0104D104E356000BF00BF064D083563
:103C20002D68C5F303150E4E705D0B4D2D68C54014
:103C3000094E356070BD0000003802400070004041
:103C400008544007003C024088ED00E0FFFFF6FE0C
:103C5000103000240024F400BC00002000127A0080
:103C6000C000002010B504469848844208D10121C4
:103C7000084600F086FB0021012000F082FB76E080
:103C80009348844208D10121022000F07AFB0021F0
:103C9000022000F076FB6AE08E48844208D10121C0
:103CA000042000F06EFB0021042000F06AFB5EE0BF
:103CB0008948844208D10121082000F062FB0021DC
:103CC000082000F05EFB52E08448844208D10121C4
:103CD000102000F056FB0021102000F052FB46E0BF
:103CE0007F48844208D10121202000F04AFB0021B6
:103CF000202000F046FB3AE07A48844208D10121B6
:103D0000402000F03EFB0021402000F03AFB2EE076
:103D10007548844208D10121802000F032FB002147
:103D2000802000F02EFB22E07048844208D101215F
:103D3000801500F026FB0021A01500F022FB16E004
:103D40006B48844208D10121401500F01AFB002184
:103D5000601500F016FB0AE06648844207D1012195
:103D6000001500F00EFB0021201500F00AFB10BD2D
:103D7000F0B50A4600210023002400BF3DE00125E4
:103D800005FA01F3156805EA03049C4234D105687D
:103D90004F000326BE40B543056015794E00B5407F
:103DA0000668354305601579012D02D01579022D7D
:103DB00016D185684F000326BE40B543856055790E
:103DC0004E00B540866835438560456801268E40C3
:103DD000B5434560456896798E40B6B23543456037
:103DE000C5684F000326BE40B543C560D5794E0077
:103DF000B540C6683543C560491C1029BFD3F0BD26
:103E00004FF6FF7101600021017141718171C17133
:103E1000704708B54FF480320092009A0A4300922E
:103E2000009AC261C161009AC261C2690092C2690E
:103E3000009208BD0246002013690B4201D0012008
:103E400000E0002070470146086980B270470246D2
:103E5000002053690B4201D0012000E00020704790
:103E60000146486980B270470183704741837047BB
:103E70000AB1018300E041837047416170474269A4
:103E80004A4042617047F0B5002300244D07ED0E13
:103E900002FA05F3CE1000F1200555F826504E0722
:103EA000F70E0F26BE40B543CF1000F1200646F8AE
:103EB0002750CE1000F1200555F8265045EA03049E
:103EC000CE1000F1200545F82640F0BD000002406C
:103ED0000004024000080240000C024000100240B2
:103EE0000014024000180240001C02400020024062
:103EF0000024024000280240F948006840F0010018
:103F0000F74908600020F64908310860F448006865
:103F1000F4490840F2490860F348091D0860F34875
:103F2000EF4984310860F0481038091D0860EC48FA
:103F3000006820F48020EA4908600020E8490C313C
:103F40000860E7498C31086070470021E44A921C00
:103F5000117011460870704710B501460022002309
:103F600000204A11012A02D1DD4C236808E0022A10
:103F700003D1DB4C7034236802E0D94C74342368DD
:103F800001F01F02012494401C4201D0012000E0F6
:103F9000002010BD38B5002000900024002500BF8F
:103FA0003120FFF7D9FF05460098401C009000988B
:103FB000B0F5A04F01D0002DF2D03120FFF7CCFF9B
:103FC00008B1012400E00024204638BD014600204D
:103FD000C34A106820F0F80040EAC1001060704742
:103FE000C349086070470021BD4A703211701170DA
:103FF000012802D004280AD104E00121B84A703215
:10400000117005E00521B64A7032117000E000BF62
:1040100000BF7047B7490860704770B5049C41EA1B
:1040200082150126C6EB530645EA0645054345EAD7
:104030000465AB4E361D356070BDAD4908667047EE
:10404000820142EA0172A64B84331A607047A84984
:104050008866704710B5830143EA016343EA02733F
:104060009F4C8834236010BDA14908677047A04960
:10407000C864704702460020994B0833186820F046
:10408000EC6042EA01031843954B0833186070470F
:1040900002460020924B0833186820F0784042EA2C
:1040A000010318438E4B0833186070470146002007
:1040B0008B4A0832106820F00300084310607047F4
:1040C00087480830006800F00C0070470146002067
:1040D000834A0832106820F0F000084310607047EF
:1040E000014600207E4A0832106820F4E050084360
:1040F0001060704701460020794A0832106820F4A9
:10410000604040EAC10010607047F0B50021002215
:104110000024022500260223714F08373F6807F06C
:104120000C0121B1042905D0082937D105E0724FCF
:10413000076036E0714F076033E0694F3F1D3F680D
:10414000C7F38056664F3F1D3F6807F03F036EB1CF
:104150006A4FB7FBF3F7DFF888C10CF1040CDCF809
:1041600000C0CCF3881C07FB0CF40CE0624FB7FBDB
:10417000F3F7DFF86CC10CF1040CDCF800C0CCF3F1
:10418000881C07FB0CF4564F3F1D3F68C7F30147DF
:104190007F1C7D00B4FBF5F7076002E0564F076017
:1041A00000BF00BF4E4F08373F6807F0F001090914
:1041B000534F7A5C0768D7404760494F08373F68DC
:1041C00007F4E051890A4E4F7A5C4768D740876010
:1041D000434F08373F6807F46041490B484F7A5C0A
:1041E0004768D740C760F0BD002100F44072B2F5C7
:1041F000407F0AD13A4A0832116821F4F811414A45
:1042000002401143364A08321160354A7032126852
:10421000C0F30B031A43324B70331A6070473549B1
:10422000443908607047334940390860704736495F
:104230000860704701460020294A8C32106820F03F
:104240001F004A1E1043264A8C32106070470146F8
:104250000020234A8C32106820F4F8504A1E40EAAD
:1042600002201F4A8C3210607047014600201C4A11
:104270008C32106820F440100843106070470146EB
:104280000020174A8C32106820F440000843106068
:10429000704701460020124A8C32106820F44030EA
:1042A00008431060704719490860704739B10C4ADB
:1042B0003032126802430A4B30331A6006E0084A73
:1042C000303212688243064B30331A607047F9B1BE
:1042D000034A343212680243014B34331A601CE043
:1042E00000380240FFFFF6EA1030002400300020C2
:1042F00000004742800E47420024F40000127A007A
:10430000D0000020FFFCFF0F5C014742E011474254
:104310008F4A126882438E4B1A60704739B18C4ABB
:10432000121D126802438A4B1B1D1A6006E0884A60
:10433000121D12688243864B1B1D1A60704739B1EB
:10434000834A0C3212680243814B0C331A6006E038
:104350007F4A0C32126882437D4B0C331A607047DF
:1043600039B17B4A103212680243794B10331A601C
:1043700006E0774A103212688243754B10331A6098
:10438000704739B1724A243A12680243704B243B99
:104390001A6006E06E4A243A126882436C4B243B52
:1043A0001A60704739B16A4A203A12680243684B72
:1043B000203B1A6006E0664A203A12688243644B4A
:1043C000203B1A60704739B1614A1C3A12680243B7
:1043D0005F4B1C3B1A6006E05D4A1C3A1268824340
:1043E0005B4B1C3B1A60704739B1594A143A12684A
:1043F0000243574B143B1A6006E0554A143A1268C0
:104400008243534B143B1A60704739B1504A103AFB
:10441000126802434E4B103B1A6006E04C4A103AB9
:10442000126882434A4B103B1A60704739B1484AC0
:104430001C3212680243464B1C331A6006E0444AA1
:104440001C3212688243424B1C331A60704739B1E8
:104450003F4A2032126802433D4B20331A6006E087
:104460003B4A203212688243394B20331A6070472E
:1044700039B1374A243212680243354B24331A606B
:1044800006E0334A243212688243314B24331A60E7
:10449000704739B12E4A2C32126802432C4B2C3310
:1044A0001A6006E02A4A2C3212688243284B2C33C9
:1044B0001A60704739B1264A303212680243244BE1
:1044C00030331A6006E0224A303212688243204BB1
:1044D00030331A607047012808D11D493C31096802
:1044E00041F008011A4A3C32116007E018493C319A
:1044F000096821F00801164A3C321160704739B151
:10450000134A273A12780243114B273B1A7006E0F0
:104510000F4A273A127882430D4B273B1A70704797
:104520000B484030006840F0807009494031086015
:10453000704701460020064A283A12680A4201D014
:10454000012000E0002070470149263908707047BB
:104550003438024010B50446FE48844208D1012197
:104560000846FFF752FF00210120FFF74EFF9DE0B4
:10457000B4F1804F08D101210846FFF735FF002133
:104580000120FFF731FF91E0F348844208D1012177
:104590000220FFF729FF00210220FFF725FF85E019
:1045A000EE48844208D101210420FFF71DFF0021BD
:1045B0000420FFF719FF79E0E948844208D101217E
:1045C0000820FFF711FF00210820FFF70DFF6DE025
:1045D000E448844208D101211020FFF705FF0021A3
:1045E0001020FFF701FF61E0DF48844208D101217C
:1045F0002020FFF7F9FE00212020FFF7F5FE55E00F
:10460000DA48844208D101210220FFF7FEFE002192
:104610000220FFF7FAFE49E0D548844209D1012182
:104620000804FFF7F2FE00214FF48030FFF7EDFEA3
:104630003CE0D048844209D101214804FFF7E5FE5F
:1046400000214FF40030FFF7E0FE2FE0CA4884421B
:1046500009D101218804FFF7D8FE00214FF4802002
:10466000FFF7D3FE22E0C548844208D10121402053
:10467000FFF7BAFE00214020FFF7B6FE16E0C04863
:10468000844208D101218020FFF7AEFE0021802066
:10469000FFF7AAFE0AE0BB48844207D1012180153A
:1046A000FFF7A2FE0021A015FFF79EFE10BD00221D
:1046B0000288A84B98420ED0AC4B98420BD0B0F178
:1046C000804F08D0A44B984205D0A44B984202D00A
:1046D000A34B984204D14FF68F731A404B881A436C
:1046E000A04B984207D0A04B984204D04FF6FF430E
:1046F0001A400B891A4302804B68C3620B880385FA
:10470000944B984202D0994B984201D18B7A038600
:104710000123838270474FF0FF3141600021018007
:1047200001814180817270470185828270470A460B
:10473000002101884FF68F731940114301807047A3
:1047400041627047C16270470146486A704701463E
:10475000088D704721B1028842F00202028004E015
:1047600002884FF6FD731A400280704721B102881B
:1047700042F00402028004E002884FF6FB731A4004
:104780000280704721B1028842F08002028004E07A
:1047900002884FF67F731A400280704702884FF6F6
:1047A000F7731A40028002880A4302807047028829
:1047B0004FF6FF431A40028002880A430280704786
:1047C00021B1028842F00102028004E002884FF623
:1047D000FE731A400280704770B500240022002347
:1047E000058C4FF6FE7635400584028C8388048B59
:1047F0004FF68F752C40B51E2C400D882C43751E2E
:104800002A408D892A434D882A43524DA84202D01E
:10481000564DA84213D14FF6F7752A40CD892A4349
:104820004FF6FB752A408D882A434FF6FF652B40D3
:104830004FF6FF552B400D8A2B434D8A2B43838027
:1048400004838D684563028470BD70B50024002226
:104850000023058C4FF6EF7635400584028C838863
:10486000048B48F6FF752C404FF6FF452C400D8811
:104870004FF6FF7606EA05252C434FF6DF752A40F2
:104880008D8906EA05152A434D8806EA05152A434F
:10489000304DA84202D0354DA8421DD14FF67F754C
:1048A0002A40CD894FF6FF7606EA05152A434FF6D2
:1048B000BF752A408D8806EA05152A434FF6FF3555
:1048C0002B404FF2FF752B400D8A06EA85052B43DE
:1048D0004D8A06EA85052B43838004838D688563B2
:1048E000028470BD70B5002400220023058C4FF6B1
:1048F000FF6635400584028C8388848B4FF68F7564
:104900002C404FF6FC752C400D882C434FF6FF557C
:104910002A408D894FF6FF7606EA05252A434D8801
:1049200006EA05252A430B4DA84202D00F4DA842A6
:1049300038D14FF2FF752A40CD894FF6FF7606EA4F
:1049400005252A434FF6FF352A408D8806EA0525BE
:104950002A4319E000000140000400400008004024
:10496000000C004000100040001400400004014012
:104970000040014000440140004801400018004050
:10498000001C0040002000404EF6FF752B404DF605
:10499000FF752B400D8A06EA05152B434D8A06EA62
:1049A00005152B43838084838D68C563028470BDA5
:1049B00070B5002200230024058C4EF6FF763540AA
:1049C0000584038C8488828B48F6FF752A404FF655
:1049D000FF452A400D884FF6FF7606EA05252A4353
:1049E0004DF6FF752B408D8906EA05352B434D8822
:1049F00006EA05352B43FE4DA84202D0FD4DA842E4
:104A000008D14BF6FF752C400D8A4FF6FF7606EA6B
:104A100085152C43848082838D680564038470BD72
:104A2000002101804180818081608181C18101827A
:104A30004182704770B503460020002418461830A4
:104A400001258D40ACB21D8CA5431D8409B10829F8
:104A50000AD100EB610005684FF68F76354005609E
:104A60000568154305600FE00D1FC5F34E0528448A
:104A7000056848F6FF763540056005684FF6FF7615
:104A800006EA02263543056070BD416370478163C5
:104A90007047C1637047016470470A460021018B6B
:104AA0004FF68F7319401143018370470A46002166
:104AB000018B48F6FF7319404FF6FF7303EA022398
:104AC0001943018370470A460021818B4FF68F738B
:104AD00019401143818370470A460021818B48F6B3
:104AE000FF7319404FF6FF7303EA022319438183D2
:104AF00070470A460021018B4FF6F77319401143A6
:104B0000018370470A460021018B4FF2FF73194061
:104B10004FF6FF7303EA02231943018370470A46E5
:104B20000021818B4FF6F773194011438183704741
:104B30000A460021818B4FF2FF7319404FF6FF7335
:104B400003EA02231943818370470A460021018B3F
:104B50004FF6FB7319401143018370470A46002149
:104B6000018B4FF6FF3319404FF6FF7303EA022320
:104B70001943018370470A460021818B4FF6FB736E
:104B800019401143818370470A460021818B4FF6FB
:104B9000FF3319404FF6FF7303EA02231943818361
:104BA00070470A460021018B4FF67F73194011436D
:104BB000018370470A460021018BC1F30E014FF6B5
:104BC000FF7303EA02231943018370470A46002159
:104BD000818B4FF67F7319401143818370470A46DA
:104BE0000021818BC1F30E014FF6FF7303EA02230C
:104BF0001943818370470A460021018C4FF6FD73EB
:104C000019401143018470470A460021018C4FF678
:104C1000F77319401143018470470A460021018C43
:104C20004FF6DF7319404FF6FF7303EA021319437F
:104C3000018470470A460021018C4FF67F731940AA
:104C40004FF6FF7303EA02131943018470470A46C3
:104C50000021018C4FF6FF5319404FF6FF7303EA12
:104C600002231943018470470A460021018C4FF248
:104C7000FF7319404FF6FF7303EA022319430184BF
:104C800070470A460021018C4DF6FF7319404FF61C
:104C9000FF7303EA023319430184704730B50023E0
:104CA00001248C40A3B2048C9C430484048C02FA3B
:104CB00001F5ADB22C43048430BD30B5002304248B
:104CC0008C40A3B2048C9C430484048C02FA01F54A
:104CD000ADB22C43048430BD828B4FF2FF331A40B7
:104CE0008283828B4FF6FF7303EA01231A43828388
:104CF0007047F0B50C461546002100220026078CAF
:104D00004EF6FF7C07EA0C070784818B028C4FF676
:104D1000FF7707EA043640F6FF4739404FF6FF7742
:104D200007EA052739434FF6FF7707EA0337394388
:104D300045F6FF773A4046F480573A438183028430
:104D4000F0BD828B4FF6F3731A408283828B0A4345
:104D500082837047F0B50C461546002100220026DC
:104D6000078C4FF6FF6C07EA0C070784818B028CD7
:104D70004FF6FF7707EA04264FF60C7739404FF6D7
:104D8000FF7707EA03172F4339434FF2FF573A40A3
:104D900046F480773A4381830284F0BD028B4FF260
:104DA000FF331A400283028B4FF6FF7303EA01239D
:104DB0001A4302837047F0B50C46154600210022C5
:104DC0000026078C4FF6EF7C07EA0C070784018B5F
:104DD000028C4FF6FF7707EA041640F6FF4739408A
:104DE0004FF6FF7707EA033739434FF6FF7703E0C3
:104DF000000001400004014007EA052739434FF64F
:104E00005F773A4046F010073A4301830284F0BDD1
:104E1000028B4FF6F3731A400283028B0A4302831C
:104E20007047F0B50C46154600210022068C4FF65F
:104E3000FE773E400684018B028C4FF60C763140A3
:104E40007E1C06EA03162E4331434FF6F5763240B8
:104E500044F00106324301830284F0BD70B505467B
:104E60000C46208850B92389A28861882846FFF71C
:104E7000D8FFE1882846FFF7CBFF25E020880428EB
:104E80000AD12389A28861882846FFF794FFE18828
:104E90002846FFF783FF17E0208808280AD12389D6
:104EA000A28861882846FFF755FFE1882846FFF76A
:104EB00048FF09E02389A28861882846FFF719FF87
:104EC000E1882846FFF708FF70BD0021018041807E
:104ED000012181800021C180018170472DE9F041CD
:104EE00005460C4600260127608808B9022600E026
:104EF0000026A088012801D1022700E00127208890
:104F0000A0B92389A28861882846FFF78AFFE18833
:104F10002846FFF77DFF23893A4631462846FFF7AA
:104F20004AFFE1882846FFF739FF13E02389A2886A
:104F300061882846FFF73FFFE1882846FFF72EFFEC
:104F400023893A4631462846FFF76BFFE188284619
:104F5000FFF75EFFBDE8F0810146486B70470146F0
:104F6000886B70470146C86B70470146086C7047F4
:104F70000A884B881A438B881A43CB881A430B89BB
:104F80001A434B891A438B891A43A0F8442070476F
:104F90000021018041808180C18001814181818126
:104FA000704731B1B0F8442042F40042A0F84420E8
:104FB00005E0B0F84420C2F30E02A0F84420704788
:104FC00021B1828842F00402828004E082884FF698
:104FD000FB731A408280704721B1828842F001023F
:104FE000828004E082884FF6FE731A408280704708
:104FF0001AB183890B43838102E083898B438381C8
:1050000070478182704702460020138A0B4201D00C
:10501000012000E000207047CA430282704730B58B
:105020000246002000230024158A05EA0103958921
:1050300005EA010413B10CB1012000E0002030BDED
:10504000CA430282704741EA0203A0F84830704721
:105050001AB183890B43838102E083898B43838167
:10506000704721B1828842F00802828004E0828881
:105070004FF6F7731A408280704701894FF6F87235
:105080001140018170470A46002101894FF68F7354
:10509000194011430181704730B504460D46294639
:1050A0002046FFF7F0FF208940F00700208130BD47
:1050B0002DE9F04104460D4616461F46602D06D1E7
:1050C0003B46012231462046FFF775FE05E03B4690
:1050D000012231462046FFF7A4FE29462046FFF76D
:1050E000D2FF208940F007002081BDE8F08130B573
:1050F0000C4600210189C9B24FF6FF7505EA032568
:10510000154325432943018130BD2DE9F041054672
:105110000E4617469846002443463A4631462846EE
:10512000FFF7E5FF2C894FF6F870044044F00704C0
:105130004FF68F70044044F070042C81BDE8F0817C
:10514000F0B504460D4616461F463B4632462946F4
:105150002046FFF7CCFF208940F480402081F0BD3D
:1051600082884FF68F731A40828082880A43828039
:10517000704702894FF6F8731A40028102890A4388
:105180000281704702894FF67F731A4002810289BB
:105190000A4302817047F0B50C4615461E460021B1
:1051A000002200230189028B038C4FF6F8773940E7
:1051B00021434FF6FC473A4040F201173A434FF67D
:1051C000DD773B404FF6FF7707EA06172F433B4357
:1051D000018102830384F0BD21B1828842F0800204
:1051E000828004E082884FF67F731A408280704785
:1051F000A0F8501070470000016821F00101016023
:105200000021016041608160C16001612121416133
:10521000DA49884204D13D21D84A103A91608CE0A5
:10522000D6491831884205D14FF47461D34A103AF7
:10523000916082E0D1493031884205D14FF4741138
:10524000CE4A103A916078E0CC494831884205D185
:105250004FF07461C94A103A91606EE0C7496031FD
:10526000884204D1C649C54A103AD16065E0C349B5
:105270007831884204D1C349C04A103AD1605CE019
:10528000BE499031884204D1BF49BC4A103AD1602E
:1052900053E0BA49A831884205D14FF03D51B74A91
:1052A000103AD16049E0B949884204D13D21B74A5A
:1052B000083A116041E0B5491831884205D14FF4F0
:1052C0007461B24A083A116037E0B049303188421F
:1052D00005D14FF47411AD4A083A11602DE0AB4985
:1052E0004831884205D14FF07461A84A083A1160EC
:1052F00023E0A6496031884204D1A149A34A121F84
:1053000011601AE0A1497831884204D19D499F4A31
:10531000121F116011E09D499031884204D19A49D1
:105320009A4A121F116008E09849A831884204D1B6
:105330004FF03D51954A121F1160704710B5002281
:105340000268934B1A40CC680B6823434C69234393
:105350008C692343CC6923430C6A23434C6A23435F
:105360008C6A23434C6B23438C6B23431A430260A8
:10537000426922F00702D1E90B3423431A43426108
:105380000B6943604B6883608B68C36010BD00216C
:10539000016041608160C160016141618161C16101
:1053A000016241628162C16201634163816370474E
:1053B00021B1026842F00102026003E0026822F0BB
:1053C00001020260704721B1026842F400420260AB
:1053D00003E0026822F400420260704721B10268D3
:1053E00042F02002026003E0026822F02002026024
:1053F0007047416070470146486880B2704722B1EB
:10540000036843F40023036003E0036823F40023EC
:1054100003600161704721B1026842F4802202609A
:1054200003E0026822F48022026070470AB1016141
:1054300000E0C1607047014600200A6812F4002FA6
:1054400001D0012000E000207047014600200A68DA
:1054500012F0010F01D0012000E00020704701464A
:1054600000204A6902F03800704730B503460A460A
:1054700000200024454DAB4202D24049103901E0E2
:105480004249103912F0005F01D04C6800E00C680E
:10549000404D2C40144201D0012000E0002030BDDE
:1054A00002463A4B9A4202D23448103801E037485B
:1054B000103811F0005F03D0364B0B40C36002E0A0
:1054C000344B0B408360704710B511F0800F09D04A
:1054D00022B1436943F08003436103E0436923F051
:1054E0008003436180290BD02AB1036801F01E04B8
:1054F0002343036004E0036801F01E04A343036038
:1055000010BD70B502460020002400251F4EB24297
:1055100002D21A4B103B01E01C4B103B1E4E314295
:1055200006D01E2606EAD124166806EA040502E023
:10553000566906F0800511F0005F01D05C6800E05C
:105540001C68144E34400C4202D00DB1012000E022
:10555000002070BD02460D4B9A4202D20748103817
:1055600001E00A48103811F0005F03D0094B0B40EE
:10557000C36002E0074B0B4083607047106002403D
:105580003D000020400F002000003D20106402403C
:105590003F801CF07D0F7D0F3C0F3C0F40EA010364
:1055A0009B0703D009E008C9121F08C0042AFAD2D9
:1055B00003E011F8013B00F8013B521EF9D270479D
:1055C000D2B201E000F8012B491EFBD27047002245
:1055D000F6E710B513460A4604461946FFF7F0FFF2
:1055E000204610BD2DE9FE4F804681EA0300C00F22
:1055F0000C46009021F0004123F00045B8EB02007A
:10560000A94105D24046214690461C460B4602461B
:1056100023F00040104304D14046214603B0BDE8CA
:10562000F08F270DC7F30A00C3F30A510290401A06
:105630000190402866DAC3F3130040F4801B009801
:10564000924620B10023D2EB030A63EB0B0B0198C7
:105650005946C0F14002504600F0ABF906460D46EF
:1056600050465946019A00F0C3F910EB0800614119
:10567000002487EA115284EAE7731A433BD0009A68
:105680003AB3019A012A4FEA075210DC001B61EB82
:1056900002014FF0004202EA0752CDE90042001C2D
:1056A00041F5801132462B4600F0F7F9B6E7001BB2
:1056B00061EB0201001C41F5801300185B412018CA
:1056C000A2F5001747EB030140EAD570B6196D410A
:1056D00011E06D084FEA360645EAC0754FEA0752F9
:1056E000001B61EB0201001C41F5801149084FEAE3
:1056F00030000019514132462B4603B0BDE8F04F4F
:1057000000F0BEB90098012240000023D0EB020255
:1057100063EBE073009821464FEAE074B8EB0000B9
:1057200061EB0401E9E783F000435BE781F00041AE
:1057300058E72DE9FE4F81EA030404F0004421F00C
:10574000004100944FF0000B23F0004350EA0104A5
:1057500002D052EA030404D10020014603B0BDE8A0
:10576000F08FC3F30A54C1F30A552C44A4F2F33466
:105770000194A0FB0254C1F3130141F48011C3F35F
:10578000130343F4801301FB024400FB034E840A1D
:10579000970A44EA815447EA8357A4FB07680295B5
:1057A0008D0A05FB07854FEA932C04FB0C54270553
:1057B000029D4FEA065847EA1637B5EB08056EEB2F
:1057C000070C870E920E47EA811742EA8312A7FB65
:1057D0000201B6EB0B0164EB00042B0D43EA0C3322
:1057E0005E1844EB1C50DA465146E7FB0201C5F354
:1057F00013044FEA0B3343EA14534FEA0432019C7B
:1058000043EA0603A4F10C040294009CCDE900B421
:1058100000F043F9A2E72DE9F04D81EA030404F01A
:10582000004B21F0004514464FF0000A23F00041E0
:1058300050EA050220D054EA01021DD0C5F30A57F0
:105840000246C5F31303C1F31300C1F30A5640F433
:10585000801543F48013A7EB0608101BD64608F208
:10586000FD3873EB050002D308F1010801E092183E
:105870005B41B8F1000F03DA00200146BDE8F08D6E
:1058800000204FF48011064684460EE0171B73EB90
:10589000050705D3121B63EB050306434CEA010C15
:1058A00049084FEA300092185B4150EA0107EDD1F8
:1058B00052EA030012D082EA040083EA0501084399
:1058C00003D100224FF0004308E0101BAB4102D28D
:1058D0000122002302E06FF0010253101AEB0600D0
:1058E0004CEB085110EB0A0041EB0B01BDE8F04D09
:1058F00000F0C6B80EB5C10F80EAE0700844CA07D0
:10590000002140F233438DE80E000A460B4600F0BA
:10591000C4F803B000BD70B5C1F30A5201F00045F0
:105920000024C1F3130140F2FF3341F480119A4285
:1059300001DA002070BD40F233439A42A2F23342B2
:1059400003DC524200F044F800E090402C43F1D0D8
:10595000404270BD00F0004230F000400AD0C10D5E
:1059600001F56071C0F3160042EA0151C208400718
:105970001143704700200146704701F0004330B4E6
:1059800021F0004150EA010206D00A0DA2F5607232
:10599000C1F31301002A02DC30BC00207047440F21
:1059A00044EAC104C100E01830BC00EBC25000F072
:1059B00031B8202A04DB203A00FA02F100207047B7
:1059C0009140C2F1200320FA03F31943904070473D
:1059D000202A04DB203A21FA02F00021704721FA44
:1059E00002F3D040C2F120029140084319467047AB
:1059F000202A06DBCB17203A41FA02F043EAE07393
:105A000006E041FA02F3D040C2F12002914008437F
:105A1000194670470029A8BF7047401C490008BFBD
:105A200020F00100704710B4B0FA80FC00FA0CF0CE
:105A300050EA010404BF10BC704749B1CCF1200406
:105A400021FA04F411FA0CF118BF01212143084393
:105A5000A3EB0C01CB1D0106000A002BBEBF0020EA
:105A600010BC704700EBC35010440029A4BF10BC09
:105A70007047401C490008BF20F0010010BC70476F
:105A800010B5002B08DA401C41F1000192185B416F
:105A90001A4301D120F0010010BD2DE9F04D9246CE
:105AA0009B4611B1B1FA81F202E0B0FA80F22032E5
:105AB0009046FFF77EFF04460F4640EA0A0041EA9F
:105AC0000B0153465A46084303D120463946BDE8E8
:105AD000F08D114653EA010015D0C8F1400250463E
